{
  "_format": "hh-sol-artifact-1",
  "contractName": "DonationDApp",
  "sourceName": "contracts/Donation.sol",
  "abi": [
    {
      "inputs": [],
      "stateMutability": "nonpayable",
      "type": "constructor"
    },
    {
      "inputs": [],
      "name": "donationIndex",
      "outputs": [
        {
          "internalType": "uint256",
          "name": "",
          "type": "uint256"
        }
      ],
      "stateMutability": "view",
      "type": "function"
    },
    {
      "inputs": [
        {
          "internalType": "uint256",
          "name": "",
          "type": "uint256"
        }
      ],
      "name": "donations",
      "outputs": [
        {
          "internalType": "address",
          "name": "donar",
          "type": "address"
        },
        {
          "internalType": "uint256",
          "name": "amount",
          "type": "uint256"
        }
      ],
      "stateMutability": "view",
      "type": "function"
    },
    {
      "inputs": [],
      "name": "getAllDonations",
      "outputs": [
        {
          "components": [
            {
              "internalType": "address",
              "name": "donar",
              "type": "address"
            },
            {
              "internalType": "uint256",
              "name": "amount",
              "type": "uint256"
            }
          ],
          "internalType": "struct DonationDApp.Donation[]",
          "name": "",
          "type": "tuple[]"
        }
      ],
      "stateMutability": "view",
      "type": "function"
    },
    {
      "inputs": [
        {
          "internalType": "uint256",
          "name": "index",
          "type": "uint256"
        }
      ],
      "name": "getDonation",
      "outputs": [
        {
          "internalType": "address",
          "name": "",
          "type": "address"
        },
        {
          "internalType": "uint256",
          "name": "",
          "type": "uint256"
        }
      ],
      "stateMutability": "view",
      "type": "function"
    },
    {
      "inputs": [],
      "name": "getTotalDonations",
      "outputs": [
        {
          "internalType": "uint256",
          "name": "",
          "type": "uint256"
        }
      ],
      "stateMutability": "view",
      "type": "function"
    },
    {
      "inputs": [],
      "name": "owner",
      "outputs": [
        {
          "internalType": "address",
          "name": "",
          "type": "address"
        }
      ],
      "stateMutability": "view",
      "type": "function"
    },
    {
      "inputs": [],
      "name": "receiveDonation",
      "outputs": [],
      "stateMutability": "payable",
      "type": "function"
    },
    {
      "inputs": [],
      "name": "totalDonations",
      "outputs": [
        {
          "internalType": "uint256",
          "name": "",
          "type": "uint256"
        }
      ],
      "stateMutability": "view",
      "type": "function"
    }
  ],
  "bytecode": "0x608060405234801561001057600080fd5b50336000806101000a81548173ffffffffffffffffffffffffffffffffffffffff021916908373ffffffffffffffffffffffffffffffffffffffff160217905550610879806100606000396000f3fe60806040526004361061007b5760003560e01c80638da5cb5b1161004e5780638da5cb5b1461010b578063de2ed89314610136578063ef07a81f14610161578063f8626af81461019f5761007b565b806311004e211461008057806338a59a07146100ab57806345d3292b146100d6578063777c658f146100e0575b600080fd5b34801561008c57600080fd5b506100956101dd565b6040516100a2919061051e565b60405180910390f35b3480156100b757600080fd5b506100c06101e3565b6040516100cd9190610667565b60405180910390f35b6100de6102fd565b005b3480156100ec57600080fd5b506100f56103c4565b604051610102919061051e565b60405180910390f35b34801561011757600080fd5b506101206103ce565b60405161012d9190610698565b60405180910390f35b34801561014257600080fd5b5061014b6103f2565b604051610158919061051e565b60405180910390f35b34801561016d57600080fd5b50610188600480360381019061018391906106e4565b6103f8565b604051610196929190610711565b60405180910390f35b3480156101ab57600080fd5b506101c660048036038101906101c191906106e4565b610491565b6040516101d4929190610711565b60405180910390f35b60035481565b6060600060035467ffffffffffffffff8111156102035761020261073a565b5b60405190808252806020026020018201604052801561023c57816020015b6102296104d5565b8152602001906001900390816102215790505b50905060005b6003548110156102f557600260008281526020019081526020016000206040518060400160405290816000820160009054906101000a900473ffffffffffffffffffffffffffffffffffffffff1673ffffffffffffffffffffffffffffffffffffffff1673ffffffffffffffffffffffffffffffffffffffff1681526020016001820154815250508282815181106102dd576102dc610769565b5b60200260200101819052508080600101915050610242565b508091505090565b60405180604001604052803373ffffffffffffffffffffffffffffffffffffffff1681526020013481525060026000600354815260200190815260200160002060008201518160000160006101000a81548173ffffffffffffffffffffffffffffffffffffffff021916908373ffffffffffffffffffffffffffffffffffffffff1602179055506020820151816001015590505034600160008282546103a391906107c7565b92505081905550600360008154809291906103bd906107fb565b9190505550565b6000600154905090565b60008054906101000a900473ffffffffffffffffffffffffffffffffffffffff1681565b60015481565b6000806000600260008581526020019081526020016000206040518060400160405290816000820160009054906101000a900473ffffffffffffffffffffffffffffffffffffffff1673ffffffffffffffffffffffffffffffffffffffff1673ffffffffffffffffffffffffffffffffffffffff1681526020016001820154815250509050806000015181602001519250925050915091565b60026020528060005260406000206000915090508060000160009054906101000a900473ffffffffffffffffffffffffffffffffffffffff16908060010154905082565b6040518060400160405280600073ffffffffffffffffffffffffffffffffffffffff168152602001600081525090565b6000819050919050565b61051881610505565b82525050565b6000602082019050610533600083018461050f565b92915050565b600081519050919050565b600082825260208201905092915050565b6000819050602082019050919050565b600073ffffffffffffffffffffffffffffffffffffffff82169050919050565b600061059082610565565b9050919050565b6105a081610585565b82525050565b6105af81610505565b82525050565b6040820160008201516105cb6000850182610597565b5060208201516105de60208501826105a6565b50505050565b60006105f083836105b5565b60408301905092915050565b6000602082019050919050565b600061061482610539565b61061e8185610544565b935061062983610555565b8060005b8381101561065a57815161064188826105e4565b975061064c836105fc565b92505060018101905061062d565b5085935050505092915050565b600060208201905081810360008301526106818184610609565b905092915050565b61069281610585565b82525050565b60006020820190506106ad6000830184610689565b92915050565b600080fd5b6106c181610505565b81146106cc57600080fd5b50565b6000813590506106de816106b8565b92915050565b6000602082840312156106fa576106f96106b3565b5b6000610708848285016106cf565b91505092915050565b60006040820190506107266000830185610689565b610733602083018461050f565b9392505050565b7f4e487b7100000000000000000000000000000000000000000000000000000000600052604160045260246000fd5b7f4e487b7100000000000000000000000000000000000000000000000000000000600052603260045260246000fd5b7f4e487b7100000000000000000000000000000000000000000000000000000000600052601160045260246000fd5b60006107d282610505565b91506107dd83610505565b92508282019050808211156107f5576107f4610798565b5b92915050565b600061080682610505565b91507fffffffffffffffffffffffffffffffffffffffffffffffffffffffffffffffff820361083857610837610798565b5b60018201905091905056fea2646970667358221220f10ec1fef829cc1e39c5aa2dc9e4db39def455cd9e90408a84b2ed48b5da440c64736f6c63430008180033",
  "linkReferences": {},
  "deployedLinkReferences": {}
}