{
  "_format": "hh-sol-artifact-1",
  "contractName": "DonationDApp",
  "sourceName": "contracts/DonationDApp.sol",
  "abi": [
    {
      "inputs": [],
      "stateMutability": "nonpayable",
      "type": "constructor"
    },
    {
      "inputs": [],
      "name": "donationIndex",
      "outputs": [
        {
          "internalType": "uint256",
          "name": "",
          "type": "uint256"
        }
      ],
      "stateMutability": "view",
      "type": "function"
    },
    {
      "inputs": [
        {
          "internalType": "uint256",
          "name": "",
          "type": "uint256"
        }
      ],
      "name": "donations",
      "outputs": [
        {
          "internalType": "address",
          "name": "donar",
          "type": "address"
        },
        {
          "internalType": "uint256",
          "name": "amount",
          "type": "uint256"
        }
      ],
      "stateMutability": "view",
      "type": "function"
    },
    {
      "inputs": [],
      "name": "getAllDonations",
      "outputs": [
        {
          "components": [
            {
              "internalType": "address",
              "name": "donar",
              "type": "address"
            },
            {
              "internalType": "uint256",
              "name": "amount",
              "type": "uint256"
            }
          ],
          "internalType": "struct DonationDApp.Donation[]",
          "name": "",
          "type": "tuple[]"
        }
      ],
      "stateMutability": "view",
      "type": "function"
    },
    {
      "inputs": [],
      "name": "getTotalDonations",
      "outputs": [
        {
          "internalType": "uint256",
          "name": "",
          "type": "uint256"
        }
      ],
      "stateMutability": "view",
      "type": "function"
    },
    {
      "inputs": [],
      "name": "owner",
      "outputs": [
        {
          "internalType": "address",
          "name": "",
          "type": "address"
        }
      ],
      "stateMutability": "view",
      "type": "function"
    },
    {
      "inputs": [],
      "name": "receiveDonation",
      "outputs": [],
      "stateMutability": "payable",
      "type": "function"
    },
    {
      "inputs": [],
      "name": "totalDonations",
      "outputs": [
        {
          "internalType": "uint256",
          "name": "",
          "type": "uint256"
        }
      ],
      "stateMutability": "view",
      "type": "function"
    },
    {
      "inputs": [
        {
          "internalType": "uint256",
          "name": "amount",
          "type": "uint256"
        }
      ],
      "name": "withdraw",
      "outputs": [],
      "stateMutability": "nonpayable",
      "type": "function"
    }
  ],
  "bytecode": "0x608060405234801561001057600080fd5b50336000806101000a81548173ffffffffffffffffffffffffffffffffffffffff021916908373ffffffffffffffffffffffffffffffffffffffff160217905550610a3b806100606000396000f3fe60806040526004361061007b5760003560e01c8063777c658f1161004e578063777c658f146101095780638da5cb5b14610134578063de2ed8931461015f578063f8626af81461018a5761007b565b806311004e21146100805780632e1a7d4d146100ab57806338a59a07146100d457806345d3292b146100ff575b600080fd5b34801561008c57600080fd5b506100956101c8565b6040516100a291906105ab565b60405180910390f35b3480156100b757600080fd5b506100d260048036038101906100cd91906105f7565b6101ce565b005b3480156100e057600080fd5b506100e9610309565b6040516100f69190610752565b60405180910390f35b610107610423565b005b34801561011557600080fd5b5061011e6104ea565b60405161012b91906105ab565b60405180910390f35b34801561014057600080fd5b506101496104f4565b6040516101569190610783565b60405180910390f35b34801561016b57600080fd5b50610174610518565b60405161018191906105ab565b60405180910390f35b34801561019657600080fd5b506101b160048036038101906101ac91906105f7565b61051e565b6040516101bf92919061079e565b60405180910390f35b60035481565b60008054906101000a900473ffffffffffffffffffffffffffffffffffffffff1673ffffffffffffffffffffffffffffffffffffffff163373ffffffffffffffffffffffffffffffffffffffff161461025c576040517f08c379a00000000000000000000000000000000000000000000000000000000081526004016102539061084a565b60405180910390fd5b4781111561029f576040517f08c379a0000000000000000000000000000000000000000000000000000000008152600401610296906108dc565b60405180910390fd5b60008054906101000a900473ffffffffffffffffffffffffffffffffffffffff1673ffffffffffffffffffffffffffffffffffffffff166108fc829081150290604051600060405180830381858888f19350505050158015610305573d6000803e3d6000fd5b5050565b6060600060035467ffffffffffffffff811115610329576103286108fc565b5b60405190808252806020026020018201604052801561036257816020015b61034f610562565b8152602001906001900390816103475790505b50905060005b60035481101561041b57600260008281526020019081526020016000206040518060400160405290816000820160009054906101000a900473ffffffffffffffffffffffffffffffffffffffff1673ffffffffffffffffffffffffffffffffffffffff1673ffffffffffffffffffffffffffffffffffffffff1681526020016001820154815250508282815181106104035761040261092b565b5b60200260200101819052508080600101915050610368565b508091505090565b60405180604001604052803373ffffffffffffffffffffffffffffffffffffffff1681526020013481525060026000600354815260200190815260200160002060008201518160000160006101000a81548173ffffffffffffffffffffffffffffffffffffffff021916908373ffffffffffffffffffffffffffffffffffffffff1602179055506020820151816001015590505034600160008282546104c99190610989565b92505081905550600360008154809291906104e3906109bd565b9190505550565b6000600154905090565b60008054906101000a900473ffffffffffffffffffffffffffffffffffffffff1681565b60015481565b60026020528060005260406000206000915090508060000160009054906101000a900473ffffffffffffffffffffffffffffffffffffffff16908060010154905082565b6040518060400160405280600073ffffffffffffffffffffffffffffffffffffffff168152602001600081525090565b6000819050919050565b6105a581610592565b82525050565b60006020820190506105c0600083018461059c565b92915050565b600080fd5b6105d481610592565b81146105df57600080fd5b50565b6000813590506105f1816105cb565b92915050565b60006020828403121561060d5761060c6105c6565b5b600061061b848285016105e2565b91505092915050565b600081519050919050565b600082825260208201905092915050565b6000819050602082019050919050565b600073ffffffffffffffffffffffffffffffffffffffff82169050919050565b600061067b82610650565b9050919050565b61068b81610670565b82525050565b61069a81610592565b82525050565b6040820160008201516106b66000850182610682565b5060208201516106c96020850182610691565b50505050565b60006106db83836106a0565b60408301905092915050565b6000602082019050919050565b60006106ff82610624565b610709818561062f565b935061071483610640565b8060005b8381101561074557815161072c88826106cf565b9750610737836106e7565b925050600181019050610718565b5085935050505092915050565b6000602082019050818103600083015261076c81846106f4565b905092915050565b61077d81610670565b82525050565b60006020820190506107986000830184610774565b92915050565b60006040820190506107b36000830185610774565b6107c0602083018461059c565b9392505050565b600082825260208201905092915050565b7f4f6e6c792074686520636f6e7472616374206f776e65722063616e207769746860008201527f647261772066756e647300000000000000000000000000000000000000000000602082015250565b6000610834602a836107c7565b915061083f826107d8565b604082019050919050565b6000602082019050818103600083015261086381610827565b9050919050565b7f496e73756666696369656e742066756e647320696e2074686520636f6e74726160008201527f6374000000000000000000000000000000000000000000000000000000000000602082015250565b60006108c66022836107c7565b91506108d18261086a565b604082019050919050565b600060208201905081810360008301526108f5816108b9565b9050919050565b7f4e487b7100000000000000000000000000000000000000000000000000000000600052604160045260246000fd5b7f4e487b7100000000000000000000000000000000000000000000000000000000600052603260045260246000fd5b7f4e487b7100000000000000000000000000000000000000000000000000000000600052601160045260246000fd5b600061099482610592565b915061099f83610592565b92508282019050808211156109b7576109b661095a565b5b92915050565b60006109c882610592565b91507fffffffffffffffffffffffffffffffffffffffffffffffffffffffffffffffff82036109fa576109f961095a565b5b60018201905091905056fea26469706673582212208119bc983ffaa9501613ef96a2c977885d93be71f5fe19c7896caf837d2f816264736f6c63430008180033",
  "linkReferences": {},
  "deployedLinkReferences": {}
}